:020000040800F2
:1000000000000220D11500089D1100089F11000872
:10001000A1110008A3110008A511000800000000AC
:10002000000000000000000000000000A711000810
:10003000A911000800000000AB110008AD11000874
:1000400021160008211600082116000821160008B4
:1000500021160008211600082116000821160008A4
:100060002116000821160008211600082116000894
:100070002116000821160008211600082116000884
:100080002116000821160008211600082116000874
:100090002116000821160008211600082116000864
:1000A0002116000821160008211600082116000854
:1000B0002116000821160008211600082116000844
:1000C0002116000821160008211600082116000834
:1000D00021160008B5110008211600082116000895
:1000E0002116000821160008211600082116000814
:1000F0002116000821160008211600082116000804
:1001000021160008211600082116000821160008F3
:1001100021160008211600082116000821160008E3
:1001200021160008211600082116000821160008D3
:1001300021160008211600082116000821160008C3
:1001400021160008211600082116000821160008B3
:1001500021160008211600082116000821160008A3
:100160002116000821160008211600082116000893
:1001700021160008211600082116000800000000C2
:080180002116000821160008F9
:1001C00081F0004102E000BF83F0004330B54FEA08
:1001D00041044FEA430594EA050F08BF90EA020F75
:1001E0001FBF54EA000C55EA020C7FEA645C7FEA08
:1001F000655C00F0E2804FEA5454D4EB5555B8BF2B
:100200006D420CDD2C4480EA020281EA030382EA9B
:10021000000083EA010180EA020281EA0303362D2D
:1002200088BF30BD11F0004F4FEA01314FF4801C00
:100230004CEA113102D0404261EB410113F0004F12
:100240004FEA03334CEA133302D0524263EB4303C9
:1002500094EA050F00F0A780A4F10104D5F1200E67
:100260000DDB02FA0EFC22FA05F2801841F10001C2
:1002700003FA0EF2801843FA05F359410EE0A5F196
:1002800020050EF1200E012A03FA0EFC28BF4CF0C7
:10029000020C43FA05F3C01851EBE37101F000457D
:1002A00007D54FF0000EDCF1000C7EEB00006EEB8A
:1002B0000101B1F5801F1BD3B1F5001F0CD3490814
:1002C0005FEA30004FEA3C0C04F101044FEA44526B
:1002D00012F5800F80F09A80BCF1004F08BF5FEAF2
:1002E000500C50F1000041EB045141EA050130BDD2
:1002F0005FEA4C0C404141EB0101013C28BFB1F5E4
:10030000801FE9D291F0000F04BF01460020B1FA2E
:1003100081F308BF2033A3F10B03B3F120020CDA01
:100320000C3208DD02F1140CC2F10C0201FA0CF0DF
:1003300021FA02F10CE002F11402D8BFC2F1200C44
:1003400001FA02F120FA0CFCDCBF41EA0C019040FA
:10035000E41AA2BF01EB0451294330BD6FEA040443
:100360001F3C1CDA0C340EDC04F11404C4F120022E
:1003700020FA04F001FA02F340EA030021FA04F340
:1003800045EA030130BDC4F10C04C4F1200220FA97
:1003900002F001FA04F340EA0300294630BD21FAD5
:1003A00004F0294630BD94F0000F83F4801306BF9B
:1003B00081F480110134013D4EE77FEA645C18BF8F
:1003C0007FEA655C29D094EA050F08BF90EA020F26
:1003D00005D054EA000C04BF1946104630BD91EA1E
:1003E000030F1EBF0021002030BD5FEA545C05D121
:1003F0004000494128BF41F0004130BD14F5800460
:100400003CBF01F5801130BD01F0004545F0FE41D3
:1004100041F470014FF0000030BD7FEA645C1ABF08
:10042000194610467FEA655C1CBF0B46024650EA3F
:10043000013406BF52EA033591EA030F41F400216B
:1004400030BD00BF90F0000F04BF0021704730B5F1
:100450004FF4806404F132044FF000054FF00001C6
:1004600050E700BF90F0000F04BF0021704730B587
:100470004FF4806404F1320410F0004548BF40425C
:100480004FF000013EE700BF42004FEAE2014FEAB1
:1004900031014FEA02701FBF12F07F4393F07F4F8C
:1004A00081F06051704732F07F4208BF704793F08F
:1004B0007F4F04BF41F40021704730B54FF46074A2
:1004C00001F0004521F000411CE700BF50EA0102A5
:1004D00008BF704730B54FF000050AE050EA01024E
:1004E00008BF704730B511F0004502D5404261EBBE
:1004F00041014FF4806404F132045FEA915C3FF4FF
:10050000D8AE4FF003025FEADC0C18BF03325FEA9B
:10051000DC0C18BF033202EBDC02C2F1200300FA4C
:1005200003FC20FA02F001FA03FE40EA0E0021FA71
:1005300002F11444BDE600BF4FF0FF3C06E000BFEF
:100540004FF0010C02E000BF4FF0010C4DF804CD5C
:100550004FEA410C7FEA6C5C4FEA430C18BF7FEA1C
:100560006C5C1BD001B050EA410C0CBF52EA430C4A
:1005700091EA030F02BF90EA020F0020704710F1CA
:10058000000F91EA030F58BF994208BF90422CBF59
:10059000D8176FEAE37040F0010070474FEA410C52
:1005A0007FEA6C5C02D150EA013C07D14FEA430C70
:1005B0007FEA6C5CD6D152EA033CD3D05DF8040BE1
:1005C000704700BF8446104662468C461946634613
:1005D00000E000BF01B5FFF7B7FF002848BF10F1EA
:1005E000000F01BD4DF808EDFFF7F4FF0CBF01202F
:1005F00000205DF808FB00BF4DF808EDFFF7EAFFAB
:1006000034BF012000205DF808FB00BF4DF808ED65
:10061000FFF7E0FF94BF012000205DF808FB00BF5A
:100620004DF808EDFFF7CEFF94BF012000205DF8E4
:1006300008FB00BF4DF808EDFFF7C4FF34BF0120F1
:1006400000205DF808FB00BF4FEA4102B2F1E04331
:1006500024BFB3F5001CDCF1FE5C0DD901F0004CA9
:100660004FEAC0024CEA5070B2F1004F40EB8300F9
:1006700008BF20F00100704711F0804F21D113F125
:100680003872BCBF01F00040704741F480114FEA5E
:100690005252C2F11802C2F1200C10FA0CF320FAE7
:1006A00002F018BF40F001004FEAC1234FEAD32304
:1006B00003FA0CFC40EA0C0023FA02F34FEA43036E
:1006C000CCE77FEA625307D150EA01331EBF4FF0F7
:1006D000FE4040F44000704701F0004040F0FE4012
:1006E00040F40000704700BF53B94AB9002908BF61
:1006F00000281CBF4FF0FF314FF0FF3000F00CB866
:10070000ADF1080C6DE904CE02F0F4FDDDF804E073
:10071000DDE9022304B07047704700BF000000000D
:1007200000000000000000000000000000000000C9
:1007300000000000000000000000000000000000B9
:1007400030B490F800F020F007016FF0000C10F0CA
:10075000070491F820F040F048804FF000046FF05B
:100760000700D1E9002391F840F000F1080082FA77
:100770004CF2A4FA8CF283FA4CF3A2FA8CF34BBB42
:10078000D1E9022382FA4CF200F10800A4FA8CF2BB
:1007900083FA4CF3A2FA8CF3E3B9D1E9042382FA89
:1007A0004CF200F10800A4FA8CF283FA4CF3A2FA9E
:1007B0008CF37BB9D1E9062301F1200182FA4CF2D6
:1007C00000F10800A4FA8CF283FA4CF3A2FA8CF33D
:1007D000002BC6D0002A04BF04301A4612BAB2FA5F
:1007E00082F200EBD20030BC7047D1E9002304F064
:1007F0000305C4F100004FEAC50514F0040F91F899
:1008000040F00CFA05F562EA05021CBF63EA050335
:1008100062464FF00004AAE700000000000000005C
:1008200001F0FF01102A2BDB10F0070F08D010F8A1
:10083000013B013A8B422DD010F0070F42B3F6D1A5
:10084000F0B441EA012141EA014122F007047FF0BE
:1008500000070023F0E80256083C85EA010586EA15
:10086000010685FA47F5A3FA87F586FA47F6A5FA51
:1008700087F68EB9EED1F0BC01F0FF0102F007025D
:1008800032B110F8013B013A83EA010313B1F8D108
:100890000020704701387047002D06BF35460338E9
:1008A000073815F0010F07D1013015F4807F02BF22
:1008B000013015F4C03F0130F0BC0138704700BF73
:1008C000844641EA000313F003036DD1403A41D35B
:1008D00051F8043B40F8043B51F8043B40F8043B1A
:1008E00051F8043B40F8043B51F8043B40F8043B0A
:1008F00051F8043B40F8043B51F8043B40F8043BFA
:1009000051F8043B40F8043B51F8043B40F8043BE9
:1009100051F8043B40F8043B51F8043B40F8043BD9
:1009200051F8043B40F8043B51F8043B40F8043BC9
:1009300051F8043B40F8043B51F8043B40F8043BB9
:1009400051F8043B40F8043B51F8043B40F8043BA9
:10095000403ABDD2303211D351F8043B40F8043B49
:1009600051F8043B40F8043B51F8043B40F8043B89
:1009700051F8043B40F8043B103AEDD20C3205D359
:1009800051F8043B40F8043B043AF9D2043208D051
:10099000D2071CBF11F8013B00F8013B01D30B88C3
:1009A00003806046704700BF082A13D38B078DD0A1
:1009B00010F003038AD0C3F10403D21ADB071CBF73
:1009C00011F8013B00F8013B80D331F8023B20F8DD
:1009D000023B7BE7043AD9D3013A11F8013B00F816
:1009E000013BF9D20B7803704B7843708B7883709E
:1009F0006046704770B54FF0FF0C4CF4E06C1CEA99
:100A000011541DBF1CEA135594EA0C0F95EA0C0F04
:100A100000F0DEF82C4481EA030621EA4C5123EA77
:100A20004C5350EA013518BF52EA033541F48011A6
:100A300043F4801338D0A0FB02CE4FF00005E1FB59
:100A400002E506F00042E0FB03E54FF00006E1FBA3
:100A500003569CF0000F18BF4EF0010EA4F1FF04E6
:100A6000B6F5007F64F5407404D25FEA4E0E6D4126
:100A700046EB060642EAC62141EA55514FEAC52037
:100A800040EA5E504FEACE2EB4F1FD0C88BFBCF5B3
:100A9000E06F1ED8BEF1004F08BF5FEA500E50F164
:100AA000000041EB045170BD06F0004646EA01012A
:100AB00040EA020081EA0301B4EB5C04C2BFD4EB5C
:100AC0000C0541EA045170BD41F480114FF0000E55
:100AD000013C00F3AB8014F1360FDEBF002001F0C3
:100AE000004170BDC4F10004203C35DA0C341BDC3D
:100AF00004F11404C4F1200500FA05F320FA04F00F
:100B000001FA05F240EA020001F0004221F0004142
:100B100010EBD37021FA04F642EB06015EEA430EB5
:100B200008BF20EAD37070BDC4F10C04C4F12005E5
:100B300000FA04F320FA05F001FA04F240EA020098
:100B400001F0004110EBD37041F100015EEA430E69
:100B500008BF20EAD37070BDC4F1200500FA05F289
:100B60004EEA020E20FA04F301FA05F243EA020308
:100B700021FA04F001F0004121FA04F220EA020017
:100B800000EBD3705EEA430E08BF20EAD37070BD5D
:100B900094F0000F0FD101F00046400041EB01013D
:100BA00011F4801F08BF013CF7D041EA060195F01F
:100BB000000F18BF704703F00046520043EB0303D9
:100BC00013F4801F08BF013DF7D043EA06037047C6
:100BD00094EA0C0F0CEA135518BF95EA0C0F0CD0D1
:100BE00050EA410618BF52EA4306D1D181EA030117
:100BF00001F000414FF0000070BD50EA410606BF11
:100C00001046194652EA430619D094EA0C0F02D155
:100C100050EA013613D195EA0C0F05D152EA03369A
:100C20001CBF104619460AD181EA030101F00041B8
:100C300041F0FE4141F470014FF0000070BD41F001
:100C4000FE4141F4780170BD70B54FF0FF0C4CF4DB
:100C5000E06C1CEA11541DBF1CEA135594EA0C0FFA
:100C600095EA0C0F00F0A7F8A4EB050481EA030E47
:100C700052EA03354FEA013100F088804FEA03332E
:100C80004FF0805545EA131343EA12634FEA0222FC
:100C900045EA111545EA10654FEA00260EF00041BD
:100CA0009D4208BF964244F1FD0404F5407402D20F
:100CB0005B084FEA3202B61A65EB03055B084FEAA0
:100CC00032024FF480104FF4002CB6EB020E75EB9D
:100CD000030E22BFB61A754640EA0C005B084FEAC5
:100CE0003202B6EB020E75EB030E22BFB61A754642
:100CF00040EA5C005B084FEA3202B6EB020E75EB8D
:100D0000030E22BFB61A754640EA9C005B084FEA04
:100D10003202B6EB020E75EB030E22BFB61A754611
:100D200040EADC0055EA060E18D04FEA051545EA00
:100D300016754FEA06164FEAC30343EA52734FEAA9
:100D4000C2025FEA1C1CC0D111F4801F0BD141EA22
:100D500000014FF000004FF0004CB6E711F4801F87
:100D600004BF01430020B4F1FD0C88BFBCF5E06F67
:100D70003FF6AFAEB5EB030C04BFB6EB020C5FEA77
:100D8000500C50F1000041EB045170BD0EF0004ECC
:100D90004EEA113114EB5C04C2BFD4EB0C0541EAFE
:100DA000045170BD41F480114FF0000E013C90E6FB
:100DB00045EA060E8DE60CEA135594EA0C0F08BFBF
:100DC00095EA0C0F3FF43BAF94EA0C0F0AD150EABE
:100DD00001347FF434AF95EA0C0F7FF425AF104651
:100DE00019462CE795EA0C0F06D152EA03353FF479
:100DF000FDAE1046194622E750EA410618BF52EAF6
:100E000043067FF4C5AE50EA41047FF40DAF52EAC9
:100E100043057FF4EBAE12E74FEA410C7FEA6C5CCE
:100E200002D150EA013C0AD14FEA430C7FEA6C5CE4
:100E300002D152EA033C02D14FF0000070474FF05C
:100E4000010070474FEA410212F5001215D211D588
:100E50006FF47873B3EB625212D94FEAC12343F0B7
:100E6000004343EA505311F0004F23FA02F018BF39
:100E7000404270474FF00000704750EA013005D102
:100E800011F0004008BF6FF0004070474FF00000C5
:100E9000704700BF0348044B834202D0034B03B1A9
:100EA00018477047DC060020DC0600200000000028
:100EB0000548064B1B1AD90F01EBA301491002D0BC
:100EC000034B03B118477047DC060020DC06002006
:100ED0000000000010B5064C237843B9FFF7DAFF95
:100EE000044B13B10448AFF300800123237010BDFD
:100EF000DC06002000000000D8AC000808B5054B57
:100F00001BB105490548AFF30080BDE80840FFF775
:100F1000CFBF00BF00000000E0060020D8AC0008F2
:100F200030B58BB000240594069407940894099476
:100F30000194224B1A6B42F010021A631A6B02F0F2
:100F400010020192019A02941A6B42F020021A6375
:100F50001A6B02F020020292029A03941A6B42F07A
:100F600080021A631A6B02F080020392039A0494BF
:100F70001A6B42F001021A631B6B03F00103049326
:100F8000049B0F4D01224FF4C061284600F068FD1C
:100F90001023059306940223079305A9094800F03E
:100FA00069FC4FF4C06305930123069307940894EA
:100FB00005A9284600F05EFC0BB030BD00380240A9
:100FC000001402400010024072B6FEE700B595B072
:100FD0003022002108A802F041FC0023039304936F
:100FE00005930693079301931F4A116C41F08051BA
:100FF0001164126C02F080520192019A02931B4A12
:10100000116841F480411160126802F4804202923A
:10101000029A0222089201210B9110210C910E924A
:101020000F9308231093A823119312920423139370
:1010300008A800F01BFD98B90F2303930223049323
:10104000002305934FF4A05306934FF48053079366
:10105000052103A800F074FF20B915B05DF804FB6A
:10106000FFF7B2FFFFF7B0FF00380240007000400A
:10107000F0B58DB000F0FCFAFFF7A8FFFFF750FFC6
:1010800000F07AFA00F09CF9334C0421204601F07C
:10109000F3FA0821204601F0EFFA0C21204601F076
:1010A000EBFA236800229A63DA631A6400243AE0B8
:1010B00001EE104A0AA8F7EE000A9FED280A02F096
:1010C000B9F8DDED0B0A9DED0A0A01F0CDFF0446EB
:1010D0000146DDED0B0A9DED0A0A07A802F004F8AF
:1010E000224604A907A802F045F80498FFF7CCF9B6
:1010F00004460D460698FFF7C7F9CDE902010598A9
:10110000FFF7C2F9CDE9000122462B46144800F052
:1011100003FA0DA3D3E9002330463946FFF756F80A
:10112000FFF792FA04462046FFF7AEF906460F464F
:1011300007A3D3E90023FFF769FA0028B8D10024F8
:10114000F1E700BFAFF300807B14AE47E17A843F44
:101150001F85EB51B81E1940FC060020000000005E
:10116000F0AC000882B0002100910B4B5A6C42F4A5
:1011700080425A645A6C02F480420092009A0191B3
:101180001A6C42F080521A641B6C03F08053019376
:10119000019B02B0704700BF00380240FEE7FEE747
:1011A000FEE7FEE7FEE770477047704708B500F0BE
:1011B00079FA08BD10B582B00E4C204601F0DCFD76
:1011C00023681A6812F0100F01D102B010BD00227E
:1011D00001921A6801925B680193019B2046E38D9E
:1011E0009BB205490A68C3F500731A440A6001F00E
:1011F000E7FCEAE708100020440700200268184BCB
:101200009A4200D0704710B5164B19684A1E586DA7
:10121000154C224442605A6D08325A65DB6D9A4281
:1012200013D0C1F50063B3F5007F12D20D4B00223D
:101230001A605B6D0C4A1A600A4B5B6D4FF40072CA
:1012400019680A4801F0F3FE10BD064B1A1D5A65D5
:10125000E7E7044B5B6D044A11441960ECE700BFFB
:101260000010014044070020A407002008100020BF
:101270000120704708B502F097FB162303604FF07A
:10128000FF3008BD08B54FF0FF31FFF7F3FFFEE771
:1012900070B50C461646002506E0AFF300802146E7
:1012A00001F8010B01350C46B542F6DB304670BD46
:1012B00070B50C461646002504E014F8010BAFF398
:1012C00000800135B542F8DB304670BD4FF0FF308D
:1012D00070474FF400534B60002070470120704767
:1012E0000020704710B503460C4A0D490D480068B0
:1012F00040B10C4800680344521A934206D8094A88
:10130000136010BD0748084C0460F2E702F04CFB84
:101310000C2303604FF0FF30F3E700BF0000022012
:1013200000040000F806002068130020034AD2F8E9
:10133000883043F47003C2F88830704700ED00E055
:101340000368B3F1804F00D0704782B0002301934F
:10135000054B1A6C42F001021A641B6C03F0010386
:101360000193019B02B070470038024000B587B07E
:101370000023019302930393049305930368B3F14D
:10138000804F02D007B05DF804FB002300930A4BA6
:101390001A6B42F001021A631B6B03F00103009306
:1013A000009B0E230193022302930123059301A9BD
:1013B000024800F05FFAE5E7003802400000024012
:1013C00000B58FB000230A930B930C930D930893F1
:1013D0000993019302930393049305930693079350
:1013E0002C484FF080420260292242602022826015
:1013F00040F2E732C2600361836100F0A3FF00287E
:1014000032D14FF480530A930AA9224801F0A5F87B
:1014100068BB204800F0C2FF60BB0023089309931B
:1014200008A91C4801F0AAF938BB602301930023E6
:1014300002930393059304220DEB0201154801F07A
:1014400011F8E8B9082201A9124801F00BF8D0B947
:101450000C2201A90F4801F005F8B8B90D48FFF7B3
:1014600085FF0FB05DF804FBFFF7AEFDC9E7FFF79E
:10147000ABFDCEE7FFF7A8FDCFE7FFF7A5FDD4E76B
:10148000FFF7A2FDDEE7FFF79FFDE1E7FFF79CFD19
:10149000E4E700BFFC06002010B588B000230393EA
:1014A0000493059306930793026803F1804303F5C1
:1014B00088339A4201D008B010BD0024019403F58E
:1014C00094335A6C42F010025A645A6C02F01002C3
:1014D0000192019A02941A6B42F001021A631B6B8B
:1014E00003F001030293029B4FF4C06303930223B2
:1014F0000493032306930723079303A9054800F0E9
:10150000B9F922460421252000F024F9252000F015
:1015100031F9D0E7000002400FB410B582B004AA40
:1015200052F8041B0192094C204602F07BF9204638
:10153000FFF706F9FF2382B22146054801F0BBFA06
:1015400002B0BDE8104004B0704700BFA40F0020F7
:1015500008100020064B1A46002142F8041B5A6569
:101560009A6503F14C02DA65024A5A60704700BF7F
:1015700044070020A407002008B51248124B03605E
:101580004FF4FA33436000238360C36003610C228D
:1015900042618361C36101F05FFA78B9FFF7DAFF56
:1015A00008480268D36843F01003D360074B5B6DB3
:1015B0004FF40072196801F03AFD08BDFFF704FD11
:1015C000ECE700BF08100020001001404407002095
:1015D000DFF834D00D480E490E4A002302E0D458FB
:1015E000C4500433C4188C42F9D30B4A0B4C00236B
:1015F00001E013600432A242FBD3FFF797FE02F032
:10160000D9F9FFF735FD70470000022000000020E7
:10161000DC06002004B30008DC0600206413002070
:10162000FEE7000010B504460E4B1A784FF47A73AB
:10163000B3FBF2F30C4A1068B0FBF3F000F0A8F82B
:1016400068B90F2C01D901200AE0002221464FF091
:10165000FF3000F07FF8054B1C60002000E0012007
:1016600010BD00BF04000020000000200800002082
:1016700008B50B4B1A6842F400721A601A6842F4FB
:1016800080621A601A6842F480721A60032000F0C7
:101690004FF80420FFF7C6FFFFF764FD002008BDE8
:1016A000003C0240034A1168034B1B780B44136053
:1016B000704700BF4C10002004000020014B186848
:1016C000704700BF4C100020002808DB0901C9B298
:1016D00000F1604000F5614080F80013704700F0B1
:1016E0000F000901C9B2014B1954704714ED00E015
:1016F00000B500F00700C0F1070CBCF1040F28BFD3
:101700004FF0040C031D062B0FD9C31E4FF0FF3EF4
:101710000EFA0CF021EA000199400EFA03FE22EACB
:101720000E0241EA02005DF804FB0023EEE7000030
:10173000074AD36823F4E0631B041B0C000200F487
:10174000E060034343F0BF6343F40033D36070476A
:1017500000ED00E010B50446054BD868C0F3022048
:10176000FFF7C6FF01462046FFF7AEFF10BD00BFE2
:1017700000ED00E0002807DB00F01F024009012314
:101780009340024A42F82030704700BF00E100E079
:101790000138B0F1807F0BD24FF0E0235861054A49
:1017A000F02182F823100020986107221A61704707
:1017B0000120704700ED00E070B50446866DFFF72C
:1017C0007DFF94F83530DBB2022B06D080236365B1
:1017D000002384F83430012070BD05462268136868
:1017E00023F0160313602268536923F080035361CA
:1017F000236CE3B12268136823F0080313602268A6
:10180000136823F00103136023681B6813F0010FB2
:1018100011D0FFF753FF431B052BF5D92023636538
:10182000032084F83500002384F83430D4E7A36C17
:10183000002BDFD1E3E7E26D3F239340B360012348
:1018400084F83530002084F83400C5E790F835304E
:10185000DBB2022B03D080234365012070470523B0
:1018600080F835300268136823F00103136000200C
:101870007047000000230F2B00F2E98070B582B0A2
:1018800065E085684FEA430E032404FA0EF425EA66
:101890000405CC6804FA0EF42C438460446824EAFE
:1018A00002044A68C2F300129A40224342605CE09C
:1018B000DC08083450F8242003F00705AD004FF091
:1018C0000F0E0EFA05FE22EA0E0E0A69AA4042EA3F
:1018D0000E0240F824205CE0072200E0002202FA19
:1018E0000EF22A4302345A4D45F82420594A94688E
:1018F0006FEA0C0224EA0C054E6816F4801F01D032
:101900004CEA0405534CA560E46802EA04054E68FD
:1019100016F4001F01D04CEA04054E4CE5606468E3
:1019200002EA04054E6816F4003F01D04CEA0405B3
:10193000484C6560246822404D6815F4803F01D012
:101940004CEA0402434C226001330F2B7DD8012264
:101950009A400C6804EA020C32EA0404F4D14C68A0
:1019600004F00304013C012C8BD94A6802F0030205
:10197000032A09D0C4685D000322AA4024EA0204B5
:101980008A68AA402243C2604A6802F00302022A1F
:101990008ED004684FEA430E032202FA0EF224EAC4
:1019A00002044A6802F0030202FA0EF222430260C5
:1019B0004A6812F4403FC7D000220192264A546C74
:1019C00044F480445464526C02F480420192019ABF
:1019D0009C08A51C1E4A52F8255003F0030E4FEA3E
:1019E0008E0E0F2202FA0EF225EA02051B4A9042E1
:1019F0003FF474AF02F5806290421AD002F5806223
:101A0000904218D002F58062904216D002F58062B2
:101A1000904214D002F58062904212D002F58062AA
:101A2000904210D002F5806290423FF455AF0822F8
:101A300055E7012253E7022251E703224FE7042230
:101A40004DE705224BE7062249E702B070BD70471B
:101A500000380140003C01400038024000000240D4
:101A60000AB181617047090481617047002800F064
:101A7000E08170B582B00446036813F0010F3BD0DB
:101A80009F4B9B6803F00C03042B2CD09C4B9B6852
:101A900003F00C03082B21D06368B3F5803F4FD0CF
:101AA000B3F5A02F52D0964B1A6822F480321A60F8
:101AB0001A6822F480221A606368002B50D0FFF766
:101AC000FDFD05468E4B1B6813F4003F14D1FFF754
:101AD000F5FD401B6428F5D90320B1E1884B5B6814
:101AE00013F4800FD8D0864B1B6813F4003F03D04B
:101AF0006368002B00F09F81236813F0020F54D01D
:101B00007F4B9B6813F00C0F3ED07D4B9B6803F01E
:101B10000C03082B33D0E368002B68D0794B0122EB
:101B20001A60FFF7CBFD0546754B1B6813F0020FDB
:101B300054D1FFF7C3FD401B0228F5D903207FE1F4
:101B40006F4A136843F480331360B5E76C4B1A682F
:101B500042F480221A601A6842F480321A60ABE7BD
:101B6000FFF7ACFD0546664B1B6813F4003FC3D07E
:101B7000FFF7A4FD401B6428F5D9032060E1604B0A
:101B80005B6813F4800FC6D15D4B1B6813F0020F26
:101B900003D0E368012B40F05081594A136823F0C9
:101BA000F803216943EAC1031360236813F0080FA7
:101BB00042D063696BB3534B0122C3F8802EFFF709
:101BC0007DFD05464E4B5B6F13F0020F34D1FFF7DE
:101BD00075FD401B0228F5D9032031E1484A1368FE
:101BE00023F0F803216943EAC1031360DDE7454BA5
:101BF00000221A60FFF762FD0546414B1B6813F097
:101C0000020FD2D0FFF75AFD401B0228F5D903205E
:101C100016E13C4B0022C3F8802EFFF74FFD05462E
:101C2000374B5B6F13F0020F06D0FFF747FD401BE9
:101C30000228F5D9032003E1236813F0040F77D0BD
:101C40002F4B1B6C13F0805F33D1002301932C4B7F
:101C50001A6C42F080521A641B6C03F0805301939B
:101C6000019B0125284B1B6813F4807F23D0A368B8
:101C7000012B34D0052B38D0214B1A6F22F00102F2
:101C80001A671A6F22F004021A67A368002B3DD06E
:101C9000FFF714FD06461A4B1B6F13F0020F46D1D7
:101CA000FFF70CFD801B41F288339842F3D90320E3
:101CB000C6E00025D6E7144A136843F48073136026
:101CC000FFF7FCFC0646104B1B6813F4807FCED157
:101CD000FFF7F4FC801B0228F5D90320B0E0084A86
:101CE000136F43F001031367CFE7054B1A6F42F000
:101CF00004021A671A6F42F001021A67C5E700BFB3
:101D0000003802400000474200700040FFF7D6FC58
:101D10000646524B1B6F13F0020F08D0FFF7CEFCA4
:101D2000801B41F288339842F3D9032088E0EDB953
:101D3000A369002B00F08380484A926802F00C02ED
:101D4000082A51D0022B17D0454B00221A66FFF704
:101D5000B5FC0446414B1B6813F0007F42D0FFF7EF
:101D6000ADFC001B0228F5D9032069E03B4A136C47
:101D700023F080531364DBE7394B00221A66FFF728
:101D80009DFC0546354B1B6813F0007F06D0FFF71E
:101D900095FC401B0228F5D9032051E0E369226A33
:101DA0001343626A43EA8213A26A5208013A43EA81
:101DB0000243E26A43EA0263284A5360284B012245
:101DC0001A66FFF77BFC0446244B1B6813F0007F68
:101DD00006D1FFF773FC001B0228F5D903202FE082
:101DE00000202DE000202BE0012B2BD01B4B5B684B
:101DF00003F48001E269914226D103F03F02216A97
:101E00008A4223D1616A47F6C0721A40B2EB811F41
:101E10001ED103F44031A26A5208013AB1EB024FDD
:101E200018D103F07063E26AB3EB026F14D10020A3
:101E300006E001207047012002E0012000E00020C0
:101E400002B070BD0120FBE70120F9E70120F7E7B0
:101E50000120F5E70120F3E70120F1E70038024017
:101E60000000474208B5334B9B6803F00C03042B7A
:101E70005BD0082B5BD12F4B5A6802F03F025B68A6
:101E800013F4800F2CD02B4B5868C0F388104FEA06
:101E9000401CBCEB000C6EEB0E0E4FEA8E1343EAB7
:101EA0009C634FEA8C11B1EB0C0163EB0E03DB007A
:101EB00043EA5173C90011EB000C43F100035902CE
:101EC00000234FEA4C2041EADC51FEF70DFC194B90
:101ED0005B68C3F3014301335B00B0FBF3F027E021
:101EE000144B5868C0F388104FEA401CBCEB000C40
:101EF0006EEB0E0E4FEA8E1343EA9C634FEA8C1191
:101F0000B1EB0C0163EB0E03DB0043EA5173C90034
:101F100011EB000C43F10003990200234FEA8C20DF
:101F200041EA9C51FEF7E0FBD1E7034800E003489B
:101F300008BD00BF0038024000127A000024F400FF
:101F4000002800F09B8070B50D4604464F4B1B687F
:101F500003F007038B4208D2CBB24C4A13701368CC
:101F600003F007038B4240F08B80236813F0020FCD
:101F700017D013F0040F04D0454A936843F4E0539C
:101F80009360236813F0080F04D0414A936843F428
:101F9000604393603E4A936823F0F003A1680B43CB
:101FA0009360236813F0010F32D06368012B21D0B6
:101FB0009A1E012A25D9364A126812F0020F61D002
:101FC00033498A6822F0030213438B60FFF776FBE4
:101FD00006462F4B9B6803F00C036268B3EB820F3D
:101FE00016D0FFF76BFB801B41F288339842F0D983
:101FF000032042E0264A126812F4003FE0D101209B
:102000003BE0234A126812F0007FD9D1012034E06E
:102010001E4B1B6803F00703AB4207D9EAB21B4B08
:102020001A701B6803F00703AB422DD1236813F02D
:10203000040F06D0164A936823F4E053E1680B437B
:102040009360236813F0080F07D0114A936823F4B4
:102050006043216943EAC1039360FFF703FF0C4B20
:102060009B68C3F303130B4AD35CD8400A4B186038
:102070000A4B1868FFF7D6FA002070BD01207047A0
:102080000120FAE70120F8E70120F6E7003C0240D2
:102090000038024018AD00080000002008000020B1
:1020A000014B1868704700BF0000002008B5FFF71B
:1020B000F7FF044B9B68C3F38223034AD35CD840E9
:1020C00008BD00BF0038024010AD000808B5FFF79A
:1020D000E7FF044B9B68C3F34233034AD35CD84009
:1020E00008BD00BF0038024010AD000830B4036ADC
:1020F00023F001030362036A4268846924F0730CCD
:102100000C6844EA0C0423F0020C8B6843EA0C03CD
:10211000114DA84203D005F58065A84205D123F0F2
:102120000803CD682B4323F004030B4DA84203D0D2
:1021300005F58065A84207D122F440724D6945EA51
:10214000020C8A6942EA0C02426084614A68426376
:10215000036230BC704700BF0000014030B4036A26
:1021600023F480730362036A4268C46924F0730C29
:102170000C6844EA0C0523F400738C6843EA0423DA
:10218000114CA04203D004F58064A04206D123F490
:102190000063CC6843EA042323F480630A4CA04222
:1021A00003D004F58064A04207D122F440524C6968
:1021B00042EA04128C6942EA04124260C5614A682C
:1021C000C263036230BC70470000014030B4036A50
:1021D00023F480530362036A4468C26922F4E6422E
:1021E0000D6842EA052223F400538D6843EA053363
:1021F000094DA84203D005F58065A84204D124F416
:1022000080444D6944EA85144460C2614A680264AE
:10221000036230BC704700BF0000014010B4036A85
:10222000046A24F001040462846924F0F00C4CEA8E
:10223000021223F00A030B43826103625DF8044B30
:10224000704710B4036A23F0100303628469036AC1
:1022500024F4704C4CEA023223F0A00343EA011349
:10226000826103625DF8044B7047836823F070035A
:102270000B4343F007038360704770470368304A9D
:10228000904212D0B0F1804F0FD0A2F57C42904224
:102290000BD002F58062904207D002F58062904236
:1022A00003D002F57842904203D123F070034A68CC
:1022B0001343234A90422AD0B0F1804F27D0A2F591
:1022C0007C42904223D002F5806290421FD002F5FA
:1022D000806290421BD002F57842904217D002F5FE
:1022E0007052904213D002F5806290420FD002F5F6
:1022F000806290420BD0A2F59832904207D002F54E
:102300008062904203D002F58062904203D123F4B0
:102310004073CA68134323F080034A691343036080
:102320008B68C3620B688362054B984203D003F548
:102330008063984201D10B690363012343617047B5
:102340000000014040B310B5044690F83D30F3B1B1
:10235000022384F83D30214651F8040BFFF78EFF2D
:10236000012384F8463084F83E3084F83F3084F806
:10237000403084F8413084F8423084F8433084F8A7
:10238000443084F8453084F83D30002010BD80F89A
:102390003C30FEF7D5FFDBE70120704740B310B5B6
:1023A000044690F83D30F3B1022384F83D302146D5
:1023B00051F8040BFFF762FF012384F8463084F8DC
:1023C0003E3084F83F3084F8403084F8413084F85F
:1023D000423084F8433084F8443084F8453084F83F
:1023E0003D30002010BD80F83C30FFF746FFDBE7B2
:1023F0000120704730B4036A23F010030362036ABC
:102400004468826922F4E6420D6842EA052223F01C
:1024100020038D6843EA0513114DA84203D005F54A
:102420008065A84206D123F08003CD6843EA0513F6
:1024300023F040030A4DA84203D005F58065A84269
:1024400007D124F440644D6944EA85048D6944EA67
:102450008504446082614A688263036230BC7047CD
:102460000000014038B590F83C30012B66D004469E
:102470000D46012380F83C300C2A5AD8DFE802F0E0
:10248000075959591B59595930595959440000682D
:10249000FFF72CFE2268936943F0080393612268DA
:1024A000936923F0040393612268936929690B43BC
:1024B000936100203EE00068FFF79CFF226893696B
:1024C00043F4006393612268936923F4806393610A
:1024D00022689369296943EA01239361002029E076
:1024E0000068FFF73BFE2268D36943F00803D3611D
:1024F0002268D36923F00403D3612268D369296970
:102500000B43D361002015E00068FFF75FFE2268EF
:10251000D36943F40063D3612268D36923F48063F1
:10252000D3612268D369296943EA0123D36100207A
:1025300000E00120002384F83C3038BD0220FCE795
:1025400010B4846824F47F4C42EA03220A4342EA2E
:102550000C0282605DF8044B704790F83C30012B10
:1025600078D010B50446012380F83C30022380F86F
:102570003D300268936823F47F4323F07703936030
:102580000B68602B4CD029D8402B54D00CD9502B41
:1025900022D1CA6849680068FFF740FE50212068D0
:1025A000FFF763FE002005E0202B0DD009D9302B6A
:1025B0000AD00120012384F83D30002384F83C3008
:1025C00010BD0BB1102B05D119462068FFF74DFE49
:1025D0000020EFE70120EDE70120EBE7B3F5805F96
:1025E00034D0B3F5005F0CD1CB684A6889680068C5
:1025F000FFF7A6FF2268936843F4804393600020AE
:10260000D8E7702B24D1CB684A6889680068FFF747
:1026100097FF2268936843F0770393600020C9E72F
:10262000CA6849680068FFF70CFE60212068FFF760
:102630001CFE0020BEE7CA6849680068FFF7EEFD8F
:1026400040212068FFF711FE0020B3E70020B1E72A
:102650000120AFE70220704701F01F014FF0010C8D
:102660000CFA01FC036A23EA0C030362036A8A4042
:10267000134303627047000010B504460846002962
:1026800042D194F83E30DBB2013B18BF0123002B4E
:102690006ED1002851D1022384F83E300122014638
:1026A0002068FFF7D9FF2368334A934203D002F52D
:1026B0008062934203D15A6C42F400425A64236808
:1026C0002D4A934249D0B3F1804F46D0A2F57C42C7
:1026D000934242D002F5806293423ED002F580627E
:1026E00093423AD002F57842934236D002F57052C6
:1026F000934232D0A2F5943293422ED01A6842F01F
:1027000001021A60002032E0042908D008290DD007
:1027100094F84130DBB2013B18BF0123B7E794F8CE
:102720003F30DBB2013B18BF0123B0E794F84030E3
:10273000DBB2013B18BF0123A9E7042805D0082814
:1027400007D0022384F84130A8E7022384F83F3001
:10275000A4E7022384F84030A0E79A6802F0070259
:10276000062A07D01A6842F001021A60002010BD44
:102770000120FCE70020FAE70000014090F83C202F
:10278000012A3DD010B40346012280F83C200222E9
:1027900080F83D2002685068946820F0700C08684A
:1027A00040EA0C0050601A68164882421AD0B2F112
:1027B000804F17D0A0F57C40824213D000F5806096
:1027C00082420FD000F5806082420BD000F5784045
:1027D000824207D000F57050824203D0A0F59430B9
:1027E000824204D124F0800449682143916001228F
:1027F00083F83D20002083F83C005DF8044B7047CF
:102800000220704700000140026802F10C0353E807
:10281000003F23F490730C3242E800310029F3D1D9
:10282000026802F1140353E8003F23F0010314325D
:1028300042E800310029F3D1036B012B05D020239E
:1028400080F83E30002303637047026802F10C03F6
:1028500053E8003F23F010030C3242E80031002916
:10286000F3D1ECE790F83D30DBB2212B01D0022010
:1028700070478368B3F5805F17D0036A5A1C026201
:102880001A7803685A60C38C9BB2013B9BB2C38425
:102890004BB90268D36823F08003D3600268D36821
:1028A00043F04003D360002070470369002BE4D15C
:1028B000036A1B880268C3F308035360036A023388
:1028C0000362E0E710B504460268136923F440533D
:1028D000C1680B431361836802691A4343691A4351
:1028E000C3691A430168CB6823F4164323F00C0331
:1028F0001343CB600268536923F4407381690B432F
:1029000053610368314A934206D002F580629342D4
:1029100002D0FFF7CBFB01E0FFF7D8FBE369B3F58B
:10292000004F29D00021031849411B1841F1000133
:10293000C90041EA5371DB00181863684FEA83024B
:102940004FEA937341F10001FDF7CEFE204AA2FB4E
:1029500000314909642303FB11031B013233A2FB3D
:1029600003235B0903F0F00202EB011203F00F03F3
:10297000216813448B6010BD0023021843EB030150
:10298000121841F10001C90041EA5271D200101839
:1029900041F10001626892185B41FDF7A5FE0C4A07
:1029A000A2FB00314909642303FB1103DB0032332E
:1029B000A2FB03235B095A0002F4F87202EB011236
:1029C00003F00703216813448B60D4E70010014033
:1029D0001F85EB512DE9F84305460F4616469946EB
:1029E000DDF820802B681C6837EA04040CBF012442
:1029F0000024B4422DD1B8F1FF3FF3D0B8F1000F5D
:102A000005D0FEF75BFEA0EB09004045EAD92A6835
:102A100002F10C0353E8003F23F4D0730C3242E878
:102A200000310029F3D12A6802F1140353E8003F72
:102A300023F00103143242E800310029F3D12023AE
:102A400085F83D3085F83E30002385F83C30032082
:102A500000E00020BDE8F88358B310B5044690F8B4
:102A60003D300BB3242384F83D302268D36823F42F
:102A70000053D3602046FFF725FF2268136923F433
:102A8000904313612268536923F02A03536122683B
:102A9000D36843F40053D36000202064202384F8DB
:102AA0003D3084F83E3010BD80F83C30FEF7F4FC39
:102AB000D8E7012070472DE9F04182B01E4690F81A
:102AC0003D30DBB2202B54D104460D469046002900
:102AD00053D0002A53D090F83C30012B51D0012321
:102AE00080F83C3000230364212380F83D30FEF75A
:102AF000E5FD0746A4F82480A4F82680A368B3F572
:102B0000805F05D04FF00008002384F83C3012E0CD
:102B1000236913B14FF00008F6E7A8460025F3E754
:102B200038F8023B2268C3F308035360E28C92B288
:102B3000013A92B2E284E38C9BB273B100963B46B9
:102B4000002280212046FFF745FFE0B9002DE7D0A5
:102B500015F8012B23685A60E8E700963B460022EF
:102B600040212046FFF736FF78B9202384F83D3016
:102B700000E0022002B0BDE8F0810120FAE7012068
:102B8000F8E70220F6E70320F4E70320F2E77047B6
:102B900008B50168CA6822F04002CA60202280F8A5
:102BA0003D20FFF7F4FF002008BD7047704708B5CF
:102BB000806B0023C385C384FFF7F8FF08BD0000C6
:102BC00010B50446226802F10C0353E8003F23F4D9
:102BD00090730C3242E800310029F3D1226802F1EF
:102BE000140353E8003F23F00103143242E800319C
:102BF0000029F3D1236B012B1CD023685B6913F0F0
:102C0000400F2ED0226802F1140353E8003F23F056
:102C10004003143242E800310029F3D1A36BB3B171
:102C2000154A1A65A06BFEF711FE18B3A06B036D71
:102C300098471FE0226802F10C0353E8003F23F09D
:102C400010030C3242E800310029F3D1D5E700230C
:102C5000E385202284F83E2023632046FEF7CEFA47
:102C600008E00023E385202284F83E2023632046E9
:102C7000FEF7C4FA002010BD7D2C000808B5806B5B
:102C80000023C385202280F83E200363FEF7B6FAB6
:102C900008BD704790F83E30DBB2222B67D18368C5
:102CA000B3F5805F4DD0826AB3F5805F04D0002B0E
:102CB00054D10369002B51D103685B681370836A98
:102CC00001338362C38D9BB2013B9BB2C385002B52
:102CD0004FD100B583B00268D36823F02003D360DE
:102CE0000268D36823F48073D3600268536923F0C9
:102CF00001035361202380F83E30036B012B33D155
:102D000000230363026802F10C0353E8003F23F041
:102D100010030C3242E800310029F3D103681A682D
:102D200012F0100F06D0002201921A6801925B681F
:102D30000193019B818DFFF7ACFF002003B05DF88C
:102D400004FB0269002AAED1826A03685B68C3F3A0
:102D500008031380836A02338362B3E703685B6806
:102D600003F07F031370AAE7FFF71FFFE5E70220D8
:102D7000704700207047000010B582B0044602681A
:102D80001368D068516913F00F0F09D113F0200FA9
:102D90000CD010F0200F09D02046FFF77BFF16E083
:102DA00011F0010115D110F4907F12D1216B01298E
:102DB00079D013F0800F03D010F0800F40F0108115
:102DC00013F0400F03D010F0400F40F00D8102B01F
:102DD00010BD13F0010F06D010F4807F03D0226CD9
:102DE00042F00102226413F0040F04D019B1226CE6
:102DF00042F00202226413F0020F04D019B1226CD7
:102E000042F00402226413F0080F07D010F0200FE4
:102E100000D119B1226C42F008022264226C002A0F
:102E2000D5D013F0200F02D010F0200F29D1236845
:102E30005B6903F04003226C12F0080F00D163B30A
:102E40002046FFF7E1FC23685B6913F0400F20D0B8
:102E5000226802F1140353E8003F23F040031432C8
:102E600042E800310029F3D1A36B73B1604A1A65BF
:102E7000A06BFEF7EBFC0028A9D0A06B036D984770
:102E8000A5E72046FFF706FFD1E72046FFF78EFEB5
:102E90009DE72046FFF78AFE99E72046FFF786FE6A
:102EA0000023236493E713F0100F82D010F0100F6B
:102EB0003FF47FAF0023019313680193536801939C
:102EC000019B536913F0400F50D0A26B13685B68ED
:102ED0009BB2002B3FF47BAFA18D99427FF677AF79
:102EE000E385D369B3F5807F37D0226802F10C0304
:102EF00053E8003F23F480730C3242E8003100298C
:102F0000F3D1226802F1140353E8003F23F00103D8
:102F1000143242E800310029F3D1226802F114038F
:102F200053E8003F23F04003143242E80031002907
:102F3000F3D1202384F83E3000232363226802F17A
:102F40000C0353E8003F23F010030C3242E8003139
:102F50000029F3D1A06BFEF72FFCA18DE38D9BB26E
:102F6000C91A89B22046FFF794FE30E7A18DE38DA0
:102F70009BB2C91A89B2E38D9BB2002B3FF427AFF5
:102F800000293FF424AF226802F10C0353E8003F0C
:102F900023F490730C3242E800300028F3D1226809
:102FA00002F1140353E8003F23F00103143242E816
:102FB00000300028F3D1202384F83E30002323631F
:102FC000226802F10C0353E8003F23F010030C3297
:102FD00042E800300028F3D12046FFF75AFEF6E61B
:102FE0002046FFF73FFCF2E62046FFF7D1FDEEE674
:102FF000AF2B000881628285C285002303642222F0
:1030000080F83E2080F83C30036923B10268D36821
:1030100043F48073D3600268536943F00103536142
:103020000268D36843F02003D3600020704708B5DE
:1030300090F83E30DBB2202B0DD171B17AB190F80F
:103040003C30012B0DD0012380F83C30002303637A
:10305000FFF7D0FF00E0022008BD0120FCE70120BF
:10306000FAE70220F8E70000F5EEC00AF1EE10FAE8
:1030700022DD0022DFED1B7A20EE270A70EEC07AF7
:10308000F5EEC07AF1EE10FA18DD002030EE200ADD
:10309000B5EEC00AF1EE10FA12DD002300EB42009B
:1030A0004000C0B21844C0B2072815D8DFE800F0CD
:1030B00015170A0C0E1018120122DBE70120E5E7B4
:1030C0000123EBE701207047002070470020704784
:1030D0000420704705207047704702207047032086
:1030E000704700BF2DB2DD3FDFED1F7A20EE270ACB
:1030F000F6EE007A60EEA70A01391C4B13F9112095
:1031000007EE102AB8EEC77A27EE007A03EB4103E8
:1031100093F9013007EE903AF8EEE77A67EEA07A7D
:1031200037EE277A80ED007A114B13F9112007EE64
:10313000902AF8EEE77A67EE807A03EB410393F981
:10314000013006EE903AF8EEE66A66EEA06A77EE97
:10315000A67AC0ED017AF7EE006A36EEC77A77EE0E
:10316000677AC0ED027A7047B6F35D3F1800002021
:103170000C00002090ED007AD0ED016AD0ED027ACB
:10318000B6EE006A67EE867A013A052A51D8DFE882
:1031900002F003101D2A3744C1ED007A37EE276A8A
:1031A00081ED016A37EE267A37EE277A81ED027AD1
:1031B000704736EEA76A81ED006AC1ED017A37EEFD
:1031C000267A37EE277A81ED027A704777EE266A03
:1031D00076EEA76AC1ED006AC1ED017A37EE277A73
:1031E00081ED027A704737EE267A37EE277A81ED45
:1031F000007A76EEA76AC1ED016AC1ED027A7047E6
:1032000037EE276A81ED006A37EE267A37EE277AA5
:1032100081ED017AC1ED027A7047C1ED007A37EE97
:10322000267A37EE277A81ED017A76EEA76AC1ED2C
:10323000026A70472DE9F0472DED028B84B010EE45
:10324000904A824611EE105A10EE100AFDF71CF952
:1032500006460F462846FDF717F941EC180BB0EE6D
:10326000480AF0EE680A06F03BFB53EC102B8DED9C
:10327000000B30463946FDF7BDFBCDE90201204683
:10328000FDF702F904460D46B0EE480AF0EE680A72
:1032900006F06AFB59EC108B42464B462046294605
:1032A000FDF7A8FB02460B46DDE90201FCF78CFFA7
:1032B000FDF7CAF9CAF8000042464B463046394687
:1032C000FDF798FB06460F4622462B46DDE9000136
:1032D000FDF790FB02460B4630463946FCF776FF79
:1032E000FDF7B2F9CAF8040004B0BDEC028BBDE8EA
:1032F000F08700002DE9F047089D0C46002B4ED1C9
:1033000094468C458646B2FA82F262D94AB1C2F13D
:103310002003914020FA03F30CFA02FC194300FA4F
:1033200002FE4FEA1C471FFA8CF6B1FBF7F44FEA96
:103330001E4307FB141143EA014304FB06F19942C3
:103340000AD91CEB030304F1FF3080F0128199428B
:1033500040F20F81023C6344591A1FFA8EF3B1FB0D
:10336000F7F007FB101143EA014300FB06F69E420B
:103370000AD91CEB030300F1FF3180F0FC809E4270
:1033800040F2F980634402389B1B40EA044000216C
:103390001DB1D3400022C5E90032BDE8F0878B4261
:1033A00005D90DB1C5E9000100210846F5E7B3FADA
:1033B00083F1002946D1A34202D39042C0F0F080AD
:1033C000861A64EB03030120002DE6D0C5E90063F3
:1033D000E3E7002A40F09080A1EB0C044FEA1C4880
:1033E0001FFA8CF70121B4FBF8F64FEA1E4308FBE5
:1033F000164443EA044307FB06F0984208D91CEB45
:10340000030306F1FF3402D2984200F2CD80264633
:103410001C1A1FFA8EF3B4FBF8F008FB104443EAC1
:10342000044300FB07F79F4208D91CEB030300F19C
:10343000FF3402D29F4200F2B0802046DB1B40EAFC
:103440000640A5E7C1F120068B4022FA06F71F438C
:1034500020FA06FC04FA01F343EA0C03F44000FAF4
:1034600001F8380C4FEA1349B4FBF0FE1FFA87FC51
:1034700000FB1E4449EA04440EFB0CF9A14502FA84
:1034800001F20AD93C190EF1FF3A80F08480A1457F
:1034900040F28180AEF1020E3C44A4EB09041FFA15
:1034A00083F9B4FBF0F300FB134449EA044403FB43
:1034B0000CFCA44507D93C1903F1FF3067D2A445A1
:1034C00065D9023B3C4443EA0E40A0FB0293A4EBC7
:1034D0000C049C42CE469C4651D34ED055B1B8EB1D
:1034E0000E0364EB0C0404FA06F6CB401E43CC40FA
:1034F000C5E90064002150E7C2F1200320FA03F17E
:103500000CFA02FC24FA03F394400C434FEA1C48E3
:1035100000FA02FE1FFA8CF7B3FBF8F008FB10313B
:10352000230C43EA014300FB07F1994208D91CEB45
:10353000030300F1FF362CD299422AD902386344A2
:103540005B1AA4B2B3FBF8F108FB113344EA03445D
:1035500001FB07F3A34208D91CEB040401F1FF3679
:1035600013D2A34211D902396444E41A41EA00415A
:1035700039E70446F0E6084606E7C845AED2B9EB9F
:10358000020E63EB070C0138A8E73146EDE703466E
:1035900099E73046D4E7D6467FE7634402384DE7E3
:1035A0000646234608460FE7023E634430E700BF65
:1035B000024A0349034800F0C9B800BF24000020B4
:1035C000395E0008380000200C4B4168994210B564
:1035D000044601D002F030FCA168094B994202D0A8
:1035E000204602F029FCE168064B994204D02046AF
:1035F000BDE8104002F020BC10BD00BF50100020FC
:10360000B8100020201100202DE9F843314C324B36
:103610003248DFF8DC90DFF8DC80314F186000259D
:1036200029460423082204F15C002E4EE360C4E91D
:103630000055C4E90455A5606566A56100F00EF962
:1036400004F15800C4E90749C4E90987E66200F0BB
:10365000D9F92946244B6367082204F1C400C4E960
:103660001A55C4E91E552567C4F8CC50C4F88050DB
:1036700000F0F4F804F1680304F1C000C4F88430E9
:10368000C4E92298C4E9247600F0BCF9174BC4F8C9
:10369000DC30294604F596700822C4E93455C4E9A3
:1036A0003855C4F8D850C4F83451C4F8E85000F084
:1036B000D5F804F1D003C4E93D87C4F8F09004F5CF
:1036C0009470C4F8FC60C4F8EC30BDE8F84300F036
:1036D00099B900BF5010002088110020B1350008B2
:1036E000F93700081D380008090001001200020027
:1036F00095370008B937000810B504460A4800F0AD
:1037000085F9636B23B9094B094A1B68626323B1CE
:10371000BDE81040044800F07BB9FFF775FFBDE835
:103720001040014800F074B9981100208811002061
:10373000C9350008014800F069B900BF98110020A0
:10374000014800F065B900BF981100202DE9F84349
:1037500080460F4616464FF00009D6E90154013D58
:1037600011D4A389012B05F1FF3508D9B4F90E3026
:103770000133214603D04046B84749EA00096B1C93
:1037800004F16804EDD13668002EE6D14846BDE864
:10379000F88300BF10B50C46B1F90E1000F0D8F850
:1037A000002803DB236D0344236510BDA38923F4A4
:1037B0008053A38110BD00BF2DE9F0410C46B1F943
:1037C0000C101F46CB05054616460BD421F480513C
:1037D000A1813B46B4F90E1032462846BDE8F041BF
:1037E00000F0CCB8B4F90E100223002200F09AF8D1
:1037F000B4F90C10EAE700BF10B50C46B1F90E1091
:1038000000F090F8B4F90C30421C0EBF23F4805342
:1038100043F480532065A38110BD00BFB1F90E10A1
:1038200000F06EB870B50B4E9AB0044613466FF0B8
:1038300000450A46009404943068074C0295694696
:103840000595039400F018FD009B00221A701AB031
:1038500070BD00BF300000200802FFFF830730B5B5
:1038600047D0541E002A3ED0CAB2034601E0013CB4
:1038700039D303F8012B9D07F9D1032C2CD9CDB2F4
:1038800005EB05250F2C05EB054535D9A4F11002F4
:1038900022F00F0C03F1100EE6444FEA121C1A46F8
:1038A000156055609560D56010327245F8D10CF105
:1038B000010214F00C0F03EB021204F00F0C13D0F2
:1038C000ACF1040323F003030433134442F8045B14
:1038D0009A42FBD10CF003042CB1C9B21C4403F88A
:1038E000011B9C42FBD130BD64461346002CF4D131
:1038F000F9E703461446C0E71A46A446E0E700BFCE
:1039000038B5074D0022044608462A60FDF7DEFC64
:10391000431C00D038BD2B68002BFBD0236038BD82
:103920008C11002038B50C46084D844611462046BF
:103930001A4600232B606446FDF7D2FC431C00D0DE
:1039400038BD2B68002BFBD0236038BD8C110020C4
:1039500038B50C46084D8446114620461A460023C9
:103960002B606446FDF794FC431C00D038BD2B68E7
:10397000002BFBD0236038BD8C11002038B50C46DD
:10398000084D8446114620461A4600232B606446A3
:10399000FDF78EFC431C00D038BD2B68002BFBD0FC
:1039A000236038BD8C110020014B1868704700BFA0
:1039B0003000002070B50F4B0F4DAB42A3EB050656
:1039C00007D0B610002455F8043B01349847A642AE
:1039D000F9D807F081F9094D094B5E1BAB424FEA5C
:1039E000A60606D0002455F8043B01349847A642A9
:1039F000F9D870BDF8B20008F8B20008F8B20008B3
:103A000000B30008704700BF704700BF704700BF99
:103A1000704700BF024B13B1024800F005B8704771
:103A20000000000025610008002301461A461846E0
:103A300002F0CEBB2DE9F84306460820894602F085
:103A400085FBDFF8A4800546304600F007FCD8F877
:103A500008305F6827F00307A7F11104A4EB0904FD
:103A60002C44B4FBF5F4013C05FB04F4A54208DC4E
:103A70000021304602F044FBD8F808303B4498421D
:103A800005D0304600F0F0FB0020BDE8F88361422D
:103A9000304602F035FB01300FD0114AD8F808301B
:103AA0003F1B47F001075F60136830461B1B136024
:103AB00000F0DAFB0120BDE8F8830021304602F077
:103AC0001FFBD8F80820831A0F2BDADD43F001031F
:103AD0005360044B02491B68C01A0860D1E700BF5D
:103AE000A01100205C0100206801002000297CD08A
:103AF0002DE9F0410C46804600F0B0FB54F8043C40
:103B0000764FA4F1080523F001016818BE684268E9
:103B1000864222F0030200F08380DE07426000EB61
:103B2000020C33D454F8084CDCF804302D1B21442B
:103B3000AC6807F1080C644503F0010364D0D5F8C4
:103B40000CE0C4F80CE0CEF80840002B00F08180B7
:103B500041F001036B600160B1F5007F22D278680B
:103B6000CB080122490901338A40024357F8331038
:103B70007A6007EBC302083AC5E9021247F83350EE
:103B8000CD604046BDE8F04100F06EBBDCF804308B
:103B9000DB072BD541F00103B1F5007F44F8043C6D
:103BA0000160DCD3B1F5206F4FEA512353D28B096A
:103BB00003F1390003F13802C300F818FB58083844
:103BC000984203D163E09B68984204D05A6822F07F
:103BD00003028A42F7D8D868C5E902308560DD6003
:103BE0004046BDE8F04100F03FBB7047114407F18B
:103BF000080C836863453FD0C268DA60936041F087
:103C000001036B606950A7E7002B61D10A44D0E93A
:103C10000213CB60996042F001036B60AA50B0E7D9
:103C2000DB070A4407D454F8083CED1A1A44D5E9D6
:103C30000213CB60996042F001036B60284BBD60BA
:103C40001B6893429DD8274B40461968FFF7F2FE48
:103C500097E71144CDE7142B08D9542B1FD80B0B31
:103C600003F16F0003F16E02C300A6E703F15C00ED
:103C700003F15B02C300A0E741F001033D617D61F8
:103C8000C5F808C0C5F80CC06B60695079E7796861
:103C90009210012404FA02F20A437A609CE7B3F519
:103CA000AA7F06D8CB0B03F1780003F17702C3009B
:103CB00083E740F25452934206D88B0C03F17D0007
:103CC00003F17C02C30078E74FF47E737E2274E731
:103CD00041F001036B60016053E700BF6801002001
:103CE00060010020D01100202DE9F04F01F10B05FB
:103CF000162D85B0064624D8102900F2B18000F0B8
:103D0000ADFA102518234FF0020CBA4F3B44A3F133
:103D100008025C68944200F022816368E268A1684E
:103D200023F00303CA602344304691605A6842F08E
:103D300001025A60083400F097FA204605B0BDE849
:103D4000F08F35F0070500F18B80A94200F28880E2
:103D500000F084FAB5F5FC7FC0F073816B0A00F0C7
:103D60008380042B00F22281AB0903F1390C03F1AB
:103D7000380E4FEACC039F4F3B44A3F108005C6828
:103D8000A04207D10DE0002AE16880F2E28088427B
:103D900007D00C46636823F003035A1B0F2AF2DD99
:103DA000F446DFF864823C69444500F0BF806368F4
:103DB00023F00309A9EB05030F2B00F34781002B28
:103DC000C7E9048880F23181B9F5007FD7F804E0B3
:103DD00080F0CC804FEAD90101314FEA5919012313
:103DE00003FA09F357F83120A2604EEA030E07EBFD
:103DF000C103083BE360C7F804E047F83140D460F2
:103E00004FEAAC0301209840704534D810EA0E0FF9
:103E100007D12CF0030C400010EA0E0F0CF1040C3B
:103E2000F9D007EBCC0A5246E146D1680EE04B6868
:103E300023F00303A3EB050EBEF10F0F0C46C96878
:103E400000F3C180BEF1000F80F2E2808A42EED121
:103E500009F1010919F0030F02F10802E5D121E18E
:103E60000C233360002468E74FF400734FF0400CDC
:103E70004FF03F0E7FE7BC68636823F00309A94554
:103E800003D3A9EB05030F2B53DC5B4BDFF87CB1AD
:103E90001B68082003F1100802F058F9DBF8003025
:103EA00001900133A84404EB090205D008F1FF3862
:103EB0008044434203EA080841463046029202F039
:103EC0001FF9B0F1FF3F029A824600F0DC80824287
:103ED00000F2D780494B01991868404401F1FF3145
:103EE0001860844640F0FC801AEA010F40F0F88028
:103EF000D7F808A0C84448F00102CAF80420404B93
:103F00001968814238BF18603E4B1968814238BF3A
:103F10001860544622F00308A845A8EB050301D316
:103F20000F2B06DC304600F09FF99BE7D7F804E042
:103F300066E7621943F0010345F00105656030460C
:103F4000BA60536000F090F90834204605B0BDE82F
:103F5000F08FA2682344D16030468A60E6E6DC68D0
:103F6000A3427FF4DAAE0CF1020C1AE7B9F5206F28
:103F70004FEA59227ED3142A00F2158102F15C0324
:103F8000DB005B32F918FB580839994203D1F0E0A5
:103F90009B68994204D05A6822F003024A45F7D838
:103FA000D968C4E902318C60DC6029E7142B6DD933
:103FB000542B00F201812B0B03F16F0C03F16E0EF9
:103FC0004FEACC03D7E63046A668621945F00105F2
:103FD0006560F1608E604EF00101C7E90422C2F80D
:103FE0000880C2F80C80516044F803E000F03CF90E
:103FF0000834A2E668010020D0110020A0110020A2
:10400000CC110020C8110020700100205C010020AC
:10401000234430465A6842F001025A6054F8083F7F
:10402000D9608B6000F020F987E6A1443046D9F8CA
:10403000043043F00103C9F80430083400F014F9E7
:104040007BE64FEAD50C05F108035EE6621943F002
:10405000010145F0010565603046C7E90422C2F858
:104060000880C2F80C80516044F8093000F0FCF878
:10407000083462E64FEA991202F13903DB00383264
:1040800080E7BC4224D0BC68626843E703F15C0C63
:1040900003F15B0E4FEACC036DE65AF8083953453D
:1040A00040F0D8801CF0030F0CF1FF3CF5D17B6889
:1040B00023EA00037B60400098423FF6DCAE18B96B
:1040C000D9E6400009F104091842FAD0CC46A8E626
:1040D000614B0199186808EB000C0139C3F800C066
:1040E000DBF8000001301BBFAAEB02026244CBF8F0
:1040F00000A01A601AF00702CDE9022342D0C2F1F3
:104100000802019B9244D044134408EA01001A1AA1
:1041100002EA010B5946304601F0F2FF421C039BB4
:104120007AD0A0EB0A0000EB0B081868C7F808A0CB
:1041300048F001025844BC42CAF8042018603FF419
:10414000DEAEB9F10F0F42D96168A9F10C0222F07D
:10415000070201F0010111436160A1184FF0050C45
:104160000F2AC1F804C0C1F808C04AD8DAF8042000
:10417000C5E69210012000FA02F24EEA020EC7F8DC
:1041800004E00EE7019B0AEB08020A409A1A02EAD1
:10419000010B5946304601F0B3FF431C039BC0D1CD
:1041A000DDF808B0C1E7542A15D84FEA193202F1F8
:1041B0006F03DB006E32E5E6B3F5AA7F15D8EB0B93
:1041C00003F1780C03F1770E4FEACC03D3E501231A
:1041D000CAF80430A6E6B2F5AA7F25D84FEAD9324C
:1041E00002F17803DB007732CCE640F2545293427E
:1041F00025D8AB0C03F17D0C03F17C0E4FEACC0308
:10420000B9E5304604F108010193FFF76FFC019B0B
:10421000D7F808A01868A9E7029A083A9044A8EBD2
:104220000A084FF0000B80E740F254539A420DD831
:104230004FEA994202F17D03DB007C32A2E64FF4A3
:104240007E734FF07F0C4FF07E0E94E54FF47E733B
:104250007E2297E67B682EE7A01100200148FFF739
:10426000D5BB00BF901100200148FFF7D1BB00BFB4
:1042700090110020000000002DE9F04F2DED028B81
:10428000D9B00C46059191460993834601F034FF5D
:10429000036816931846FCF753FA0822149000217D
:1042A00028A8FFF7DBFAA3891A0603D52369002B98
:1042B00000F092879FED807B0023CDE92D33CDE97F
:1042C0001733CDE919338DED127B2FAA0F932C9262
:1042D000904615930693CDF80CB04D46039F2E469D
:1042E000774BD3F8E44001F001FF034628A8009083
:1042F000324624A93846A047002800F0A980C0F221
:104300009F80249A252A034601D01E44E8E7771BA4
:10431000044640F0A08000238DF88730994607932B
:104320004FF0FF3273780492741C0134A3F1200221
:104330005A2A00F2C780DFE812F0F002C500C5007B
:10434000EC02C500C500C5006A00C500C5005302E7
:104350006202C5005E02FE02C500FA025B005B005D
:104360005B005B005B005B005B005B005B00C5000B
:10437000C500C500C500C500C500C5004601C50093
:10438000D2011803460146014601C500C500C5001B
:10439000C500E802C500C5006702C500C500C5002C
:1043A000FC01C500D502C500C5001007C500C50049
:1043B000C500C500C500C500C500C5004601C50053
:1043C000D2012E0246014601460198022E027F00CC
:1043D000C500B102C500A2020407C3027F00C500E8
:1043E000FC017D000B07C500C5003407C5007D003A
:1043F000A3F13002002114F8013B01EB810102EB33
:104400004101A3F13002092AF5D907918EE7039FF4
:10441000384601F071FE436819931846FCF790F98D
:104420001A900646384601F067FE83681793002EFF
:1044300040F02086237878E7237849F0200974E754
:104440000822002128A8FFF709FA01231E4447E7A4
:10445000771B044611D02E9B3B442E932D9B01339A
:10446000072BC8E900572D931ADC08F10808069BB2
:104470003B440693002C7FF44EAF2E9BDDF80CB02E
:10448000002B41F0F581059B9B8903F04003002B35
:1044900041F0D083069859B0BDEC028BBDE8F08F97
:1044A000059903982CAA03F0A3FA0028EBD10DF18B
:1044B000BC08DCE7AFF30080000000000000000053
:1044C00070050020CDE90A34002BD6D000228DF8EB
:1044D000FC3001238DF88720029308929B460492BA
:1044E00010920C920E923FAD19F0020302D0029985
:1044F0000231029119F084072E9C05D10799029888
:104500000E1A002E00F3AA8082B10122C8F80420FE
:104510002D9A013201340DF18701072A2E942D9234
:10452000C8F8001000F3058408F1080883B12D9B3A
:1045300022AA01330234C8F80020072B4FF00202F0
:104540002E942D93C8F8042000F3E78308F108089F
:10455000802F00F0C082049BA3EB0B06002E00F31B
:10456000FF8219F4807F40F019822D9BC8F800501B
:1045700001335C44072BC8F804B02E942D9300F34C
:104580006C8308F1080819F0040F05D0079B029A04
:104590009D1A002D00F3DC83DDE9063202998A4280
:1045A000ACBF9B185B180693002C40F018830023C7
:1045B0002D93089B1BB108990398FFF797FA0DF10B
:1045C000BC080B9D8AE6CDE90A34099B073323F02A
:1045D0000703B3EC027B57EC176B099327F00043FA
:1045E0001F938DED1E7ADDE91EABB14B4FF0FF320C
:1045F000504659468DED127BFCF70EFC002840F02A
:104600004685AB4B4FF0FF3250465946FBF7FEFF55
:10461000002840F03C850022002330463946FBF755
:10462000EBFF002841F051809DF88720A14DA24B5F
:1046300029F080090A994729C8BF1D460023032194
:10464000089302918B46049310930C930E93002AC7
:104650003FF44AAF029B0133029345E7102E2D9A97
:1046600041F3818295481D95CDE91B372146059D73
:10467000039C11904FF0100A074604E0103E102EE4
:1046800008F1080816DD01321031072AC8E9007A5E
:10469000CDE92D21F2DD2CAA294620460DF1BC08DA
:1046A00003F0A6F9002840F0F086103E102EDDE958
:1046B0002D21E8DCDDE91B371D9D0C4601321199E7
:1046C000C8F800103444072ACDE92D24C8F8046046
:1046D00000F3CA869DF8872008F1080814E7099AB4
:1046E000432BCDE90A3402F1040403D019F0100F72
:1046F00000F05C85082200212AA8FFF7AFF8099B8B
:1047000003981A683FAD2AAB294603F03FF9B0F190
:10471000FF3F834601F0898220EAE0730293002282
:1047200009948DF887200892049210920C920E92B0
:10473000DAE6099E56F8045BCDE90A3400238DF8C9
:104740008730002D00F057850A9B532B00F0B98667
:1047500019F010030E9340F0B486049B5A1C01F02C
:1047600092800E991A462846FCF75AF808900028BD
:1047700001F0F882089B0996A3EB050B0E9B0493AE
:104780002BEAEB7110930C93089373239DF8872009
:1047900002910A935BE719F0200FCDE90A3400F08B
:1047A000EC80099B073323F007031A46596852F837
:1047B000083B09920A460029C0F219840499013184
:1047C00000F09C8253EA020129F0800440F09782B5
:1047D000049A002A40F09882A146934658AD51E1D0
:1047E000099B53F8042B0792002A80F22484079A2D
:1047F000099352420792237849F0040995E52B2347
:104800008DF88730237890E5CDE90A3449F0100916
:1048100019F0200200F0B483099B073323F007034B
:1048200019465A6851F8083B099129F4806400211F
:104830000020049D8DF887006F1C00F00C8153EA66
:10484000020024F0800940F00581002D40F0278609
:10485000002940F0C88314F0010B00F0F0833023EE
:104860008DF85F310DF25F150CE12378682B03BFE3
:10487000637849F40079013449F0400955E519F0AD
:10488000200F0B9400F0E583099B069A1B681A60C1
:10489000D2175A60099B0433099392E623786C2B54
:1048A00003BF637849F02009013449F010093CE561
:1048B000FFFFEF7F28AD00082CAD00087CAD00089D
:1048C000099A0B9452F8043B099247F63002ADF86E
:1048D00088207820A84A159249F00204002202217B
:1048E0000A90A5E7CDE90A3449F0100414F020023B
:1048F00000F05583099B073323F0070319465A68D4
:1049000051F8083B0991012192E7237849F0080901
:104910000BE5237849F0010907E59DF88720237806
:10492000002A7FF402AD20228DF88720FDE4237851
:1049300049F08009F9E4214611F8013B2A2B01F0E6
:104940003482A3F13002092A0C4698BF002101F2FB
:104950003B8114F8013B01EB810102EB4101A3F122
:104960003002092AF5D90491E0E449F0100919F060
:10497000200FCDE90A347FF414AF099A19F0100F13
:1049800052F8043B099240F0608319F0400F00F0A8
:10499000588343F3C03211461BB20CE70A9B652BC8
:1049A00040F36681DDE9120100220023FBF71AFEC5
:1049B000002800F011822D9B704AC8F800200133B6
:1049C00001340122072B2E942D93C8F8042000F304
:1049D0006B8508F10808239B0F9A934280F2268387
:1049E000149B169A1C44C8E900232D9B2E94013376
:1049F000072B2D9300F3E48308F108080F9B5D1E3D
:104A0000002D7FF7C0AD102D2D9B40F3AD855C4F81
:104A1000DDF80CB0DDF814A01197102605E008F1C0
:104A20000808103D102D40F3A18501331034072BE9
:104A3000C8E90076CDE92D34F1DD2CAA514658465F
:104A400002F0D6FF002840F0C082DDE92D340DF1E0
:104A5000BC08E6E74C46012900F05181022958AD17
:104A60001ED1159803F00F011B09415C05F8011DCB
:104A700043EA0273120953EA0201F3D158ABA1468B
:104A8000A3EB050B04999DF8872059454FF00003CF
:104A9000B8BF59460893029110930C930E93D6E534
:104AA00003F00701DB0843EA4273D208303153EACE
:104AB0000206284605F8011DF2D1E607DED53029A9
:104AC000DCD03023023805F8013C58ABA146A3EBFB
:104AD000000B0546D6E7079B029A9E1A002E7FF729
:104AE0003AAD102E2D9B41F3AA802548DDF80CA08D
:104AF0001190214610271A46044604E0103E102E5D
:104B000008F1080816DD01321031072AC8E900470C
:104B1000CDE92D21F2DD05992CAA50460DF1BC08F6
:104B200002F066FF002840F0B284103E102EDDE94E
:104B30002D21E8DC0C4613460133119AC8F80020F9
:104B40003444072BCDE92D34C8F8046000F31C85EC
:104B5000049BA3EB0B06002E08F108087FF701ADBC
:104B6000074A2D9B1192102E2ADD2246039F059C99
:104B70004FF0100A0BE000BF38AD000868AD000828
:104B80006CAD0008103E102E08F1080817DD013347
:104B90008E491032072BC8E9001ACDE92D32F1DD1C
:104BA0002CAA2146384602F023FF002840F00C8250
:104BB000103E102EDDE92D320DF1BC08E7DC144665
:104BC0000133119AC8F800203444072BCDE92D3465
:104BD000C8F8046000F3C78108F10808C1E405992A
:104BE00003982CAA02F004FF00283FF4E0ACDDF8A3
:104BF0000CB0EAE12D9B7649C8F80010013301346E
:104C00000121072B2E942D93C8F8041000F373850F
:104C100008F10808002A40F0E5840F9A09F0010322
:104C200013433FF4B0AC149B169A1C44C8E900230C
:104C30002D9B2E940133072B2D9300F3438608F10F
:104C400008080F9AC8F8005001331444072BCDE927
:104C50002D34C8F804207FF794AC059903982CAA4A
:104C600002F0C6FE0028C2D12E9C0DF1BC088AE4D9
:104C70000F9B2D9E012B04F1010406F1010608F1A2
:104C8000080740F329810123072ECDE92D64C8F8D8
:104C90000050C8F8043000F3B181149B169A013615
:104CA0001C44072EC7E90023CDE92D6400F3B2812F
:104CB00008370F9BDDE9120103F1FF3800220023C2
:104CC000FBF790FC002840F0218101360135444477
:104CD000072ECDE92D643D60C7F8048000F30A81FA
:104CE0000837189B7B6001361C44072E26ABCDE9A4
:104CF0002D643B60B1DC07F1080844E44C460A2B04
:104D000072F1000180F0538330338DF85F31A1469A
:104D10004FF0010B0DF25F15B4E6059903982CAA2C
:104D200002F066FE00287FF462AF2E9C0DF1BC08F5
:104D30000EE40599039811932CAA02F059FE00285D
:104D40007FF455AF2E9C119B0DF1BC08FFF7EEBB15
:104D5000102D2D9B40F33C871E4FDDF80C90DDF8A5
:104D600014A01197102604E0103D102D08F108083A
:104D700016DD01331034072BC8E90076CDE92D3458
:104D8000F2DD2CAA514648460DF1BC0802F030FE77
:104D9000002840F0E783103D102DDDE92D34E8DCDC
:104DA0000133119A2C44072BC8E90025CDE92D3495
:104DB0007FF7F2AB059903982CAA02F019FE0028A0
:104DC0007FF415AF2E9CFFF7E7BB00BF6CAD00086A
:104DD00068AD00087CAD0008239A002A7FF70AAF6F
:104DE000DDE90E739F42A8BF1F46002F05EB030BA2
:104DF0000BDD2D9B01333C44072BC8E900572E9453
:104E00002D9300F3448608F108080E9E002FA8BFDA
:104E1000F61B002E00F300820E9B19F4806F2B44CA
:104E20009A4640F02182239D0F9B9D4203DB19F09F
:104E3000010F00F06E84149B169A1C44C8E90023ED
:104E40002D9B2E940133072B2D9300F37E8608F1C2
:104E500008080F9BABEB0A065D1BAE42A8BF2E46AF
:104E6000002E0DDD2D9BC8F800A001333444072B24
:104E7000C8F804602E942D9300F3798608F1080891
:104E8000002EA8BFAD1B002D7FF77DAB102D2D9BF5
:104E900040F36A83AD4FDDF80CB0DDF814A0119734
:104EA000102605E008F10808103D102D40F35E8340
:104EB00001331034072BC8E90076CDE92D34F1DD3C
:104EC0002CAA5146584602F093FD00287DD1DDE919
:104ED0002D340DF1BC08E7E719F0010F7FF4D3AED4
:104EE0000123072ECDE92D64C8F80050C8F804301E
:104EF0007FF7F7AE059903982CAA02F079FD0028F8
:104F00007FF475AEDDE92D642FAFEAE60F9B012B30
:104F10007FF7E7AE112B8D4B119340F35783CDF8FC
:104F20001090DDF80CA0DDF814B01025994606E0CD
:104F30000837A8F11008B8F1100F40F34583013687
:104F40001034072EC7E90095CDE92D64F0DD2CAAB9
:104F50005946504602F04CFD002840F09882DDE9A9
:104F60002D642FAFE5E7059903982CAA02F040FDC8
:104F700000287FF43CAE2E9C0DF1BC08FFF7F1BA7F
:104F8000099951F8043B099119F010017FF44DACD7
:104F900019F0400000F062839BB20A4645E409998B
:104FA00051F8043B099114F010010BD114F04000AA
:104FB00003D00A469BB201213AE414F400721CBFEC
:104FC000DBB20246012133E4BB46089B002B3FF4D1
:104FD0005AAA08995846FEF789FD059B9B8903F05C
:104FE0004003FFF754BADDF810B058AD4AE55B4214
:104FF00062EB42024C462D2001211AE405990398E8
:105000002CAA02F0F5FC00287FF4F1ADDDE92D6457
:105010002FAF42E6059903982CAA02F0E9FC00287C
:105020007FF4E5ADDDE92D642FAF42E619F0010F05
:105030003FF4A9AAD4E409932378FFF776B958ADD1
:1050400020E519F4007F40F07383DA171146FFF76B
:10505000B2BB19F0100F40F0B18219F0400F40F0D0
:10506000618319F4007F00F0A982099B069A1B68EE
:105070001A700FE4179A2378002A3FF456A9127881
:10508000002A3FF452A949F48069FFF74EB9DDE9DF
:10509000120102460B46FBF7BFFE002840F01886BF
:1050A0000A9B612B00F00885412B00F08B85049B47
:1050B000013300F015840A9B23F02003472B04D111
:1050C000049B002B08BF01230493DDE9120149F47E
:1050D000807200291192C0F22985002341EC180B3F
:1050E000CDF808901B9308930A9B413B252B00F2B7
:1050F0002783DFE813F00004250325032503F903C4
:10510000FD03250325032503250325032503250387
:10511000250325032503250325032503250325034F
:10512000250325032503250325032503250325033F
:105130002503250325032503250325032503F9035B
:10514000FD03CDE90A34FFF763BB00BF6CAD000877
:10515000CDE90A344C46FFF7C9BBCDE90A34BD4B53
:10516000159319F0200200F00881099B073323F002
:10517000070319465A6851F8083B099119F0010FC5
:105180000AD053EA020107D00A998DF8891030211C
:1051900049F002098DF8881029F480640221FFF794
:1051A00047BBCDE90A34AC4B1593DAE7099B1B6882
:1051B0008DF8FC30012302939B463FADFFF7AFBA59
:1051C000059903982CAA02F013FC00287FF40FAD78
:1051D0002E9C0DF1BC0811E440215846FEF784FDD9
:1051E000059B18601861002800F01C86059A402372
:1051F0005361FFF75FB8049B0895062B294628BF2B
:10520000062304952A460293944D09969B461091D5
:105210000C910E91FFF71BBA102E2D9B40F3F385D6
:105220008F48DDF80CA0119042462146A846059C07
:105230001027054604E00832103E102E40F323826A
:1052400001331031072BC2E90057CDE92D31F2DDD2
:105250002CAA2146504602F0CBFB002840F01781D3
:10526000DDE92D312FAAE7E721461C460C9BCDF83E
:1052700010B0CDF828904246794FDDF84090DDF827
:105280006880DDF85CA0DDF80CB083B3B9F1000FE5
:1052900000F0FF8009F1FF392D98199B013041443E
:1052A0000728C2E900382E912D9075DC0832049B46
:1052B0009AF800001E1B8642A8BF0646002E0CDD91
:1052C0002D98013031440728C2E900462E912D90D7
:1052D00000F367819AF800000832002EACBF851BEE
:1052E0000546002D13DC04440C9B002BCED1B9F1F4
:1052F000000FCFD1DDF810B0CDF85CA0A246DA45A2
:10530000DDF8289090460C4628BFDA468BE5102D34
:105310002D9840F3478523463E462C461D4604E023
:10532000103C102C02F1080216DD01301031102360
:105330000728CDE92D0117605360F1DD05992CAAEE
:10534000584602F055FB00287FF43FAE103C102C6D
:10535000DDE92D012FAAE8DC2B4625461C4601304D
:1053600029440728CDE92D011660556000F381839B
:105370009AF8000008320444B6E7099951F8043B52
:10538000099119F010017FF4F9AE19F0400000F016
:105390005F819BB20A46F1E605992CAA584602F0B5
:1053A00027FB00287FF411AE2E992FAA7FE704F483
:1053B000806B0021CDF82080DFF8A890DDF85C80BC
:1053C000029458AD4FF0CC3A05278C465E4605E076
:1053D0000A2B72F1000233D35B462246991841F141
:1053E0000001A9FB010424F0030000EB9400091A5A
:1053F000581A62F1000E0AFB00F4A0FB09B009FB89
:105400000E440BF0010E0444AEFB070E40184FEAA9
:105410005B0B303005F8010C4BEAC47B0CF1010C3E
:10542000013D6408002ED3D098F800108C45CFD1F0
:10543000BCF1FF0FCCD00A2B72F1000280F0368154
:10544000CDF85C80029CDDF82080CDF83CC0FFF7F1
:1054500015BB00BF4CAD000838AD000860AD0008BA
:105460006CAD0008CDCCCCCC0599039811932CAA37
:1054700002F0BEFA00287FF4BAAB9DF887202E9C7C
:10548000119B0DF1BC08FFF73FB8A3469DE5D3463D
:105490009BE50C9B013B0AF1FF3A0C93FCE60129CA
:1054A0004C467FF4DBAA2FE4059903982CAA02F05E
:1054B0009FFA00287FF49BAB2E9C0DF1BC08FFF7F0
:1054C0008ABA2AAF0822002138462595FEF7C6F988
:1054D000049B581C00F0C9800024CDF80890A34616
:1054E000DDF80C909A460CE03FA9484602F04EFACF
:1054F000411C584400F09983504508DC00F04C846E
:105500008346259A12593B460434002AECD1DDF833
:105510000890BBF1000F00F0DD80BBF1630F00F3DA
:10552000B981002308933FAD082200213846FEF7D9
:1055300095F9039800975B4625AA294602F04CFA94
:10554000834540F06684002305F80B302BEAEB71AD
:105550009DF8872009960493029110930C930E9363
:10556000FFF775B8CB4630E5744A11920133119AB2
:10557000C8F800202C44072BC8F80450CDE92D347E
:105580007EF7FFAFFFF769BB059903982CAA02F0DD
:105590002FFA00287FF42BAB2E9C0DF1BC08FEF7F0
:1055A000DABF05992CAA584602F022FA00287FF4A7
:1055B0000CAD9AF800002E992FAA8EE6099B069A48
:1055C0001B681A60FFF766B9DDF81090119B3B600D
:1055D00001364444072ECDE92D64C7F804807FF7D7
:1055E0007FAB87E4149B16991C44C8E900132D9BDC
:1055F0002E940133072B2D9300F3648108F10808E2
:10560000002ABFF61EAB564210324C4A119280F26D
:10561000F282AA461027154605E008F10808103E58
:10562000102E40F3E78201331034072BC8E90057EE
:10563000CDE92D34F1DD059903982CAA02F0D8F9B3
:1056400000287FF4D4AADDE92D340DF1BC08E6E78B
:1056500019F400721CBFDBB202468FE519F4007228
:105660001CBFDBB20246FFF7E0B8002303980097A7
:1056700025AA194602F0B0F9B0F1FF3F834600F0C9
:10568000D482259545E745460C4690460133119A4C
:10569000C8F800203444072BCDE92D34C8F8046045
:1056A00000F3038108F10808FFF7B6BB1A9B1999AC
:1056B000ED1A1A46284600F0E5FC98F801300BB1C7
:1056C00008F101084FF0000C86E62D228DF88720A6
:1056D000FEF7ACBF9DF887200996CDF808B0CDF84D
:1056E00010B0CDF840B0CDF830B0CDF838B0CDF82E
:1056F00020B0FEF7ACBF059903982CAA02F078F908
:1057000000287FF474AA239A2E9C0DF1BC08FFF7A1
:1057100081BA0F9BABEB0A065D1BAE42A8BF2E46BB
:10572000FFF7AEBB099B069A1B681A80FFF7B2B859
:1057300043F3C01211465BB2FFF73DB86CAD0008F1
:10574000049E02212AAB019325AB00930398B0EE8F
:10575000480AF0EE680A23AB324600F011FE0A9BBD
:10576000672B054600F03F810A9B472B00F03B81E9
:105770000A9B23F02007462F00EB060405D103788F
:10578000302B00F0FC82239E344451EC180B002295
:105790000023FAF727FF002800F0438123465B1B14
:1057A0000F93239A0E92472F00F02581462F00F089
:1057B000EE810A99531E6129239300F02283412927
:1057C00040F0248150210120002BB6BFC2F101031B
:1057D0002B222D22092B8DF898108DF8992040F35B
:1057E00032820DF1AF04B04E22461046A6FB0312E2
:1057F000D20802EB8201A3EB4101303100F8011C19
:1058000019466329134600F1FF32EEDC303302F80B
:10581000013C831EA34280F0F9820DF1990213F836
:10582000011B02F8011FA342F9D158AB181AA0F1CD
:10583000AD0318930F9B189A012B03EB020B40F357
:105840003582149B9B44029B23F4806343F480794C
:105850002BEAEB720023109302920C930E931B9B86
:10586000002B40F0D7809DF887200493FEF7EFBE11
:10587000059C2CAA2146584602F0BAF8A38903F0E9
:105880004003FEF704BE28460996FAF759FF8346FF
:10589000FEF774BF03980BF10101FEF725FA0546E8
:1058A000002800F0C28108903EE6059903982CAAD2
:1058B00002F09EF800287FF49AA92E9C0DF1BC08F6
:1058C000FFF7AABA059903982CAA02F091F80028CC
:1058D0007FF48DA9DDE92D34239A0DF1BC088FE604
:1058E00006230493FFF7F1BB049B02215E1C29E70A
:1058F000049E032126E723A8B0EE480AF0EE680ACA
:1059000000F032FC00224FF07F5351EC100BFBF7FC
:1059100071F802460B46CDE90C2300220023FAF76A
:1059200061FE002840F0C781604B0E93049BCDF8C8
:105930003C8003F1FF392E461095DDF838B04D4616
:10594000DDE90C8905E000220023FAF74BFEF0B9EF
:105950003D46574B002240464946FBF74BF88946E7
:105960008046FBF76FFA0446FAF77CFD0B460246C9
:1059700049464046FAF728FC1BF80430B24606F8C0
:10598000013B6B1C05F1FF3780468946DBD1CB46D6
:105990005746C246474BDDF83C80002250465946E8
:1059A000A946109DFAF746FE002840F05A81414B67
:1059B000504659460022FAF715FE10B1E20700F1F1
:1059C0005081B9F1000FC0F2668109F1010333443F
:1059D000302206F8012BB342FBD15B1B0F930A9BCD
:1059E00023F02007DDE6029BDB0700F100812A9B04
:1059F000239A5B1B0F93D31C0E9202DB049B9342F2
:105A00001BDA0A9B023B0A93531E23939DF828102E
:105A10000020D9E62D2200238DF887200493FEF77D
:105A200019BE2A9BA342BFF4BAAE30215A1C2A9257
:105A300019702A9B9C42F9D8B1E60F998A42C0F2AC
:105A4000CB80029BDE0740F18B81149B02EB030BA2
:105A5000029B5C0502D5002A00F354812BEAEB730C
:105A60000293DDF8449067230A93002310930C936C
:105A7000F5E605992CAA584601F0BAFF00287FF4F4
:105A8000A4AA9AF800002E992FAA04442CE40599A0
:105A900003982CAA01F0ACFF00287FF4A8A82E9C44
:105AA0000DF1BC08FFF7B1B9CDCCCCCC4CAD0008A2
:105AB000000030400000E03F78238DF8893030232B
:105AC0008DF8883049F002030293049B632B00F3A6
:105AD000E480002308933FAD49F481731193139B35
:105AE000002B27DB9DED128B00231B930A9B612B60
:105AF0007FF4FAAAB0EE480AF0EE680A23A800F094
:105B000033FB00224FF07F5351EC100BFAF772FF7A
